:020000040800F2
:10000000000800205D230008590700085B0700086E
:1000100000000000000000000000000000000000E0
:100020000000000000000000000000005D07000864
:1000300000000000000000005F07000861070008E2
:10004000DD230008DD230008DD230008DD23000890
:10005000DD230008DD230008DD230008DD23000880
:1000600000000000DD230008DD230008DD23000878
:10007000DD230008DD23000800000000DD23000868
:100080000000000000000000000000000000000070
:10009000DD2300080000000000000000DD23000850
:1000A00000000000DD230008000000000000000048
:1000B0006907000879070008000000000000000040
:1000C00010B5064C2378002B07D1054B002B02D02E
:1000D000044800E000BF0123237010BD340000205D
:1000E0000000000038240008044B10B5002B03D09A
:1000F0000349044800E000BF10BDC04600000000F6
:100100003800002038240008002243088B4274D3B2
:1001100003098B425FD3030A8B4244D3030B8B4208
:1001200028D3030C8B420DD3FF22090212BA030C11
:100130008B4202D31212090265D0030B8B4219D3F2
:1001400000E0090AC30B8B4201D3CB03C01A524112
:10015000830B8B4201D38B03C01A5241430B8B425A
:1001600001D34B03C01A5241030B8B4201D30B0343
:10017000C01A5241C30A8B4201D3CB02C01A52416A
:10018000830A8B4201D38B02C01A5241430A8B422D
:1001900001D34B02C01A5241030A8B4201D30B0216
:1001A000C01A5241CDD2C3098B4201D3CB01C01A30
:1001B000524183098B4201D38B01C01A524143093A
:1001C0008B4201D34B01C01A524103098B4201D328
:1001D0000B01C01A5241C3088B4201D3CB00C01A95
:1001E000524183088B4201D38B00C01A524143080D
:1001F0008B4201D34B00C01A5241411A00D2014632
:10020000524110467047FFE701B5002000F006F8A4
:1002100002BDC0460029F7D076E770477047C04658
:10022000002B11D1002A0FD1002900D1002802D0C3
:100230000021C943081C07B4024802A140180290DB
:1002400003BDC046D9FFFFFF03B4684601B502985D
:1002500000F006F8019B9E4602B00CBC7047C046F9
:10026000F0B54F464646D646C0B5040082B00D00F4
:10027000914698468B422FD82CD04146484600F0F4
:10028000B1F829000600200000F0ACF8331A9C46B3
:10029000203B9A4600D576E04B46524693401F00DD
:1002A0004B46624693401E00AF4228D825D05346A5
:1002B000A41BBD41002B00DA7BE00022002300924A
:1002C00001930123524693400193012362469340D8
:1002D000009318E08242D0D90022002300920193BB
:1002E0000A9B002B01D01C605D600098019902B050
:1002F0001CBC90469946A246F0BDA342D7D9002225
:100300000023009201936346002BE9D0FB07984637
:10031000414672080A437B0866460EE0AB4201D1B3
:10032000A2420CD8A41A9D41012024196D4100213C
:10033000013E24184D41002E06D0AB42EED9013EBD
:1003400024196D41002EF8D10098019953460019E7
:100350006941002B23DB2B005246D3402A00644620
:10036000E2401C0053461500002B2DDB26005746AB
:10037000BE40330026006746BE403200801A9941D5
:1003800000900191ACE7624620239B1A4A46DA406E
:100390006146130042468A4017001F4380E76246C9
:1003A00020239B1A2A0066469A402300F3401343F9
:1003B000D4E76246202300219B1A0022009101927B
:1003C0000122DA40019280E72023624626009B1A30
:1003D000DE402F00B0466646B74046463B003343FA
:1003E000C8E7C04610B5002903D100F007F8203057
:1003F00002E0081C00F002F810BDC0461C210123D9
:100400001B04984201D3000C10391B0A984201D3F7
:10041000000A08391B09984201D30009043902A2D5
:10042000105C40187047C04604030202010101013C
:10043000000000000000000030B589B01422002147
:1004400003A801F0F1FF154BD96A04221143D962C8
:10045000D96A0A400092009ADA6A01242243DA62D9
:10046000DA6A22400192019AD96A02221143D962C2
:10047000DB6A1A400292029B094D002208212800E3
:1004800001F0BAFE08230393049400230593069316
:1004900003A9280001F0F6FD09B030BD00100240AC
:1004A0000004005010B50948094B0360E1235B02CA
:1004B000436000238360C36003610C224261836157
:1004C000C3610362436201F0BFF810BD2403002042
:1004D0000044004010B50948094B0360E1235B026A
:1004E000436000238360C36003610C224261836127
:1004F0000362436201F0A8F810BDC046A0000020CE
:100500000048004010B50F4C0F4B23600F4B636049
:100510001023A3600F3BE360002323616361A361A9
:10052000E3612362200000F0D5FA0021200000F0F2
:1005300003FC0021200000F02BFC8020400100F093
:1005400051FC10BD5400002000540040130710005F
:1005500010B598B0342200210BA801F065FF1422D9
:10056000002106A801F060FF18220021684601F072
:100570005BFF17490B68174A1A4080231B0113437E
:100580000B6002230B9301220E920F320F921493F1
:10059000002415948023DB0216938023DB0317933A
:1005A0000BA801F01BF90F2306930C3B079308944B
:1005B00009940A94012106A801F09AFB0E230093E6
:1005C000029403940494684601F08CFC18B010BDAA
:1005D00000700040FFE7FFFF10B54268531CC4687D
:1005E0009C4200DC002384689C4204D00468A1542F
:1005F0004360002010BD01204042FBE710B5836836
:1006000042689A420AD05A1CC468944200DC002214
:100610000468E35C0B708260002010BD0120404242
:10062000FBE7000070B504000E4B984203D00E4B60
:1006300098420BD070BD0D4D29780D48FFF7CCFFC7
:1006400001222900200000F0EDFBF3E7094D297895
:100650000948FFF7C1FF01222900200000F0E2FB5A
:10066000E8E7C04624030020A0000020510000203D
:100670001800002050000020080000203030C0B2D8
:100680007047000070B582B001F02EF8FFF760FFF0
:10069000FFF7D2FEFFF706FFFFF734FFFFF71AFF61
:1006A000002000F015F9002000F042F901AB002213
:1006B0001A806B46DA7001222049214800F0B2FB13
:1006C00001222049204800F0ADFB0CE0022D2DD086
:1006D00001351E4B1D70FF23022201A91C4800F0AA
:1006E0005FFA002826D1194B1B78013B9B00194A61
:1006F00098586B46D91CFFF781FF431CF3D06B461B
:10070000DE7801AC2670114B1D782800FFF7B6FF8C
:1007100060700A4B1B78002BDDD00A4B1B78002B36
:10072000D9D00D2ED2D00A2ED5D1CFE7074B01223A
:100730001A70D0E7002000F0EFF8D4E75000002056
:10074000A0000020510000202403002028000020E9
:1007500054000020000000207047FEE770477047FB
:1007600010B500F0D5FF10BD10B5024800F04EFCEA
:1007700010BDC0462403002010B5024800F046FC1E
:1007800010BDC046A0000020054B5A6B01210A4352
:100790005A63996B802252050A439A637047C04698
:1007A00000100240F0B587B004001422002101A817
:1007B00001F03AFE2268164B9A4201D007B0F0BD14
:1007C000144CE36A01252B43E362E36A2B40009358
:1007D000009B10230193122702970395032604968A
:1007E000059601A9A020C00501F04CFC8023DB0088
:1007F0000193029703950496059501A9A020C005D1
:1008000001F040FCA26B80239B031343A363D5E755
:10081000005400400010024010B588B004001422BB
:10082000002103A801F000FE2368254A934204D06A
:10083000244A934224D008B010BD234B996B8022E8
:10084000D2020A439A63D96A01221143D962DB6A50
:100850001A400192019B0323039302220492069300
:1008600003330793A02003A9C00501F00BFC00226D
:1008700000211D2001F0EEFC1D2001F01BFDDAE738
:10088000114B996B802292020A439A63D96A022221
:100890001143D962DB6A13400293029BC023039386
:1008A0000492BD3B069303A9084801F0EBFB00222C
:1008B00000211C2001F0CEFC1C2001F0FBFCBAE75B
:1008C0000048004000440040001002400004005076
:1008D00030B587B00E4AD16A02231943D162D26A79
:1008E00013400093009B08230193073B02930023CE
:1008F000039303330493074D840001A9605901F069
:10090000C1FB60590022082101F076FC07B030BD20
:10091000001002402C00002010B58000034BC0588E
:100920000122082101F068FC10BDC0462C00002007
:1009300010B58000034BC0580022082101F05CFC78
:1009400010BDC0462C00002003689A69920701D5AB
:1009500000229A6203689A69D20703D49A69012136
:100960000A439A617047000070B504000E0015003C
:1009700003689B69DB0619D523689A69920617D428
:10098000731CF9D000F0CCFE401BB04201D8002E01
:10099000F2D1636C2022134363644123E2540023A9
:1009A0002232A354023AA35401201AE0002018E096
:1009B0001022DA6123682025DD612000FFF7C4FFE3
:1009C0002268536807490B405360636C0422134349
:1009D00063644123E55400233E32A354023AA354F6
:1009E000012070BD00E800FE70B504000D00160087
:1009F00023689B699B071CD4320029002000FFF765
:100A0000B3FF002817D16B1CF2D000F089FE801BC9
:100A1000A84201D8002DEBD1636C202213436364FC
:100A20004123E25400232232A354023AA35401206A
:100A300000E0002070BD0120FCE7F8B506000C00C6
:100A400017001D0033689B6923401B1B5A4253410A
:100A5000BB4216D16B1CF5D000F062FE069BC01A9B
:100A6000A84201D8002DEDD1736C2022134373648A
:100A70004123F25400232232B354023AB3540120EA
:100A800000E00020F8BD70B505000C0016002B68D2
:100A90009B699B061AD4320021002800FFF764FFEF
:100AA000002815D100F03CFE801BA04201D8002C8C
:100AB000EDD16B6C202213436B644123EA54002375
:100AC0002232AB54023AAB54012070BD0020FCE747
:100AD0000120FAE710B5041E59D04123C35C002B56
:100AE00043D041232422E2542268136801218B431E
:100AF00013602268274B61680B401361226893687A
:100B000025490B409360E368012B34D0226884238D
:100B10001B02A1680B439360E368022B32D022686A
:100B200051681E4B0B4353602268D3681A490B402F
:100B3000D360236962691343A269120221681343D7
:100B4000CB602268E369216A0B4313602268136853
:100B500001210B4313600023636441221F31A15420
:100B600023630132A354002010BD40330022C2543D
:100B7000FFF718FEB5E7226880231B02A1680B432C
:100B80009360C9E72368802212015A60C7E70120F9
:100B9000EAE7C046FFFFFFF0FF7FFFFF0080000293
:100BA000F0B585B006000C00150003934123C35C2B
:100BB000202B00D0B8E000294CD0002A4AD0402396
:100BC000C35C012B00D1B2E040230122C25400F0EB
:100BD000A7FD070041232122F2540133013AF254C8
:100BE0000023736474627585736332685368514976
:100BF0000B4053600090039B002208213000FFF758
:100C00001CFF00282BD133680822DA61F368022B1D
:100C10002DD080210097039B002249023000FFF76E
:100C20000CFF002838D1738D9BB2002B44D03A00C2
:100C300003993000FFF7D8FE002835D13368726A77
:100C400012789A62736A01337362738D013B9BB2AF
:100C50007385E8E780239B007364012065E03268B8
:100C6000516880231B020B43536001205DE0009715
:100C7000039B002208213000FFF7DFFE002803D18C
:100C800033680822DA61C4E73268516880231B02A6
:100C90000B435360012048E03268516880231B02F7
:100CA0000B435360012040E03268516880231B02EF
:100CB0000B435360012038E03A0003993000FFF7FE
:100CC000E2FE00280CD03268516880231B020B43DF
:100CD0005360736C042B01D0012026E00023736461
:100CE00033682022DA6180210097039B1F3A0902B2
:100CF0003000FFF7A2FE00280ED132685168802331
:100D00001B020B43536041232022F2540023223262
:100D1000B354023AB35408E03268516880231B028E
:100D20000B435360012000E0022005B0F0BD02201B
:100D3000FBE7C046FF7FFFFFF0B54123C35C202BDC
:100D400020D12033C35C012B1ED040240122025548
:100D5000412524234355066833689343336006686E
:100D600033680A4F3B40336006683368194331608B
:100D700001680B6813430B60202343550023035580
:100D8000002000E00220F0BD0220FCE7FFEFFFFFA3
:100D9000F0B54123C35C202B1ED12033C35C012B53
:100DA0001CD04024012202554125242343550668C6
:100DB00033689343336006683368094F3B40090248
:100DC0001943316001680B6813430B6020234355BE
:100DD00000230355002000E00220F0BD0220FCE7C4
:100DE000FFF0FFFF044A536B01210B435363034A97
:100DF00053681843506070470010024000000140E3
:100E00000268136806490B40136002689368233137
:100E1000FF318B4393602023836700230366704771
:100E2000DFFEFFFF30B5836F202B6DD1002900D18D
:100E30006CE0002A00D16BE0836880246401A34247
:100E40001AD07024045D012C64D07024012505554E
:100E500041655821425202314252002202668022EC
:100E6000520193420FD0002B1CD10369002B15D1E6
:100E70005C33FF22C2521CE00469002CE1D1CC0794
:100E8000DFD5012041E00369002B03D15C33224A06
:100E9000C2520EE05C23FF22C2520AE05C237F2292
:100EA000C25206E08022520593421CD05C230022ED
:100EB000C2520023C367223383670268936801210B
:100EC0000B43936080235B0182689A4216D0134BD8
:100ED000036670230022C25402681168B0330B43CA
:100EE0001360002011E00369002B03D15C337F22E3
:100EF000C252DEE75C233F22C252DAE70369002BCD
:100F0000E5D1074B0366E4E7022030BD0120FCE792
:100F10000120FAE70220F8E7FF010000410F000876
:100F2000A50F0008704710B50268136840218B4375
:100F300013602023436700234366FFF7F3FF10BDD0
:100F400010B55C23C35A826F222A05D002689369C8
:100F500008210B43936110BD0268526ADBB2134053
:100F6000426D1370436D013343655A22835A013B2E
:100F70009BB28352835A9BB2002BECD10268136858
:100F800007490B401360026893682331FF318B439C
:100F900093602023836700230366FFF743FBDAE7B0
:100FA000DFFEFFFF10B55C23C25A836F222B05D0F2
:100FB0000268936908210B43936110BD03685B6A63
:100FC0001340426D1380436D023343655A22835AA6
:100FD000013B9BB28352835A9BB2002BEDD1026836
:100FE000136808490B401360026893682331FF318E
:100FF0008B4393602023836700230366FFF712FB74
:10100000DBE7C046DFFEFFFF7047000070B504005D
:101010000168CB6908688D680F221A400AD19E06C4
:1010200008D5860606D5236E002B00D189E0200066
:10103000984786E0002A6BD001222A4003D19026EF
:101040007600304264D0DD0706D5C50504D50125FC
:101050000D62E16F2943E167990708D5002A06D0A0
:10106000216802250D62E16F02352943E1675907C6
:1010700008D5002A06D0216804250D62E16F023DE3
:101080002943E167190709D5810601D4002A05D053
:10109000226808211162E26F0A43E267E26F002AC8
:1010A0004FD09B0606D5830604D5236E002B01D0B6
:1010B00020009847E26F23689B685B0601D4130702
:1010C00020D52000FFF79CFE23689A68520615D5AC
:1010D0009A6840218A439A60E36E002B0AD01B4A2B
:1010E0009A63E06E01F08EF800282AD0E06E836BE0
:1010F000984726E02000FFF787FF22E02000FFF757
:1011000083FF1EE02000FFF77FFF0023E36718E066
:10111000DA0201D56A0209D41A060ED502060CD5E8
:10112000636E002B0DD0200098470AE080235B03FC
:101130000B62200000F0BEFA03E05B0601D5430617
:1011400000D470BD2000FFF7EEFEFAE75111000851
:1011500010B5806A00235A228352083A8352FFF75F
:1011600053FF10BDD0B504000168836802691343C2
:1011700042691343C26913430A68B74802401343E4
:101180000B6022685368B5490B40E1680B4353601C
:10119000A1692268B24B9A4201D0236A194393682D
:1011A000B04803400B4393602268AF4B9A4212D081
:1011B000AB4B9A4224D01023A9498A4240D08022C6
:1011C0001202E169914276D0082B00D932E19B00EE
:1011D000A64AD3589F46A64BD96C0C230B40042B30
:1011E0000AD005D9082B27D00C2B07D10823E3E719
:1011F000002B03D10023DFE70423DDE71023DBE727
:101200009B4BDB6CC02109010B408021C9008B4244
:101210000ED009D9802109018B420FD0C0210901CC
:101220008B4207D10823C7E7002B03D10023C3E774
:101230000423C1E71023BFE70223BDE70223BBE776
:10124000022B2DD007D9042B30D0082B00D0F4E08E
:101250008020000207E0002B00D0EEE000F022FE2C
:10126000002800D1EBE0626853009B18834200D94C
:10127000E7E01303834200D2E5E0070E06025008C0
:101280000021801979410023FEF7CAFF794BC2186B
:10129000794B9A4200D9D8E02368D860002084E0D6
:1012A000734B1B68DB0604D47448DCE700F03EFA9D
:1012B000D6E77348D7E7082B62D89B00714AD3580A
:1012C0009F4600F0EFFD400063685B08C01861684E
:1012D000FEF71AFF03041B0C00206B491A00103A9A
:1012E0008A4200D9B3E00F22190091435B08083A03
:1012F00013400B432268D36057E000F0E3FD400049
:1013000063685B08C0186168FEF7FEFE03041B0CEF
:101310000020E2E7564B1B68DB060BD563685808D4
:101320005A4B9C4660446168FEF7EEFE03041B0CBA
:101330000020D2E763685808554B9C4660446168BA
:10134000FEF7E2FE03041B0C0020C6E700F0EEF9F6
:10135000400063685B08C0186168FEF7D5FE0304AF
:101360001B0C0020B9E76368580880235B029C4689
:1013700060446168FEF7C8FE03041B0C0020ACE764
:1013800001200023A9E700F08DFD63685B08C01809
:101390006168FEF7B9FE03041B0C00203A491A00ED
:1013A000103A8A4255D82268D360002323666366C8
:1013B000D0BD00F087FD63685B08C0186168FEF768
:1013C000A3FE03041B0C0020E8E7294B1B68DB0687
:1013D0000BD5636858082A4B9C4660446168FEF749
:1013E00093FE03041B0C0020D8E763685808234BC6
:1013F0009C4660446168FEF787FE03041B0C0020D6
:10140000CCE700F093F963685B08C0186168FEF7E9
:101410007BFE03041B0C0020C0E763685808802390
:101420001B029C4660446168FEF76EFE03041B0CC1
:101430000020B3E701200023B0E70120B5E700203A
:10144000B3E70120B1E70120AFE70120ADE70120BC
:10145000ABE70120A9E7C046F369FFEFFFCFFFFF2D
:1014600000480040FFF4FFFF004400405024000803
:101470000010024000FDFFFFFFFC0F000024F400FD
:1014800000093D0074240008EFFF000000127A00FC
:101490000048E801436ADB0706D5026853682C4917
:1014A0000B40816A0B435360436A9B0706D5026871
:1014B000536828490B40C16A0B435360436A5B077A
:1014C00006D50268536824490B40016B0B435360F7
:1014D000436A1B0706D50268536820490B40416BDD
:1014E0000B435360436ADB0606D5026893681C49C8
:1014F0000B40816B0B439360436A9B0606D50268E1
:10150000936818490B40C16B0B439360436A5B06B9
:101510000BD50268536814490B40016C0B435360B0
:1015200080235B03026C9A420AD0436A1B0606D5ED
:10153000026853680D490B40816C0B435360704740
:10154000026853680A490B40416C0B435360ECE757
:10155000FFFFFDFFFFFFFEFFFFFFFBFFFF7FFFFF22
:10156000FFEFFFFFFFDFFFFFFFFFEFFFFFFFF7FFD3
:10157000FFFF9FFFF0B5C64600B506000C00170040
:101580009846069D3368DB6923401B1B5A42534132
:10159000BB421CD16B1CF5D000F0C2F84346C01A08
:1015A000A84201D8002DEDD1326813680A490B40DA
:1015B000136032689368A331FF318B43936020231B
:1015C0007367B36750330022F254032000E0002019
:1015D00004BC9046F0BDC0465FFEFFFF30B583B04F
:1015E00004000023C36700F09BF8050023681B6814
:1015F0001B070CD423681B685B0715D42023636783
:10160000A36750330022E254002003B030BD802194
:101610000C4B00930300002289032000FFF7AAFF70
:101620000028E7D00320F0E78021064B00932B0031
:101630000022C9032000FFF79DFF0028DED0032011
:10164000E3E7C046FFFFFF0110B5041E2ED0436F35
:10165000002B21D0242363672268136801218B4368
:1016600013602000FFF77EFD012814D0636A002B71
:1016700018D1226853680E490B4053602268936862
:101680002A218B4393602268136829390B43136026
:101690002000FFF7A3FF10BD70330022C254FFF7F4
:1016A000BBF8D7E72000FFF7F5FEE2E70120F2E7FD
:1016B000FFB7FFFF7047000010B50400094B186822
:1016C000FA218900FEF720FD00F0FEFD002801D080
:1016D000012010BD013000222100404200F0BAFD7F
:1016E0000020F6E73000002010B5084A13684021BA
:1016F0000B4313600020FFF7DFFF041E02D001241C
:10170000200010BDFFF740F8FAE7C0460020024075
:10171000024A1368013313607047C046A8050020D1
:10172000014B18687047C046A805002010B5264B2D
:10173000D9680C230B40082B42D00C2B11D0042B62
:1017400009D0214B5A68520B0723134001338020E4
:101750000002984010BD1C4B1B68DB0632D51B48AD
:10176000F8E78A0C0F231340194AD05C890D032235
:1017700011400131144BDB68DB030DD4124B1B68A5
:10178000DB0613D54201121A93019B1ADB001B18CA
:101790001802FEF7B9FCDDE74201121A93019B1A09
:1017A000DB001B185802FEF7AFFCD3E74201121A08
:1017B00093019B1ADB001B189802FEF7A5FCC9E7F2
:1017C0000448C7E70448C5E70010024000093D008F
:1017D000B024000800127A000024F400F0B583B0B1
:1017E000041E00D165E2C44BDA680C251540DA68A6
:1017F0008026760216400368DB0736D5082D2CD0EC
:101800000C2D28D0636880225202934255D0A0222A
:10181000D202934258D0B84B1A68B8490A401A60AD
:101820001A68802149020A400192019A1A68B44953
:101830000A401A606368002B52D0FFF771FF07005F
:10184000AD4B1B689B0310D4FFF76AFFC01B6428D5
:10185000F6D903202EE2002ED4D0A74B1B689B03A1
:1018600003D56368002B00D126E223689B076CD563
:10187000E3689A0605D5A048026820210A43026061
:101880008B43042D3CD00C2D38D0002B00D1AEE082
:1018900099490A680920824313430B60FFF740FF10
:1018A0000600954B1B685B0700D597E0FFF738FFF4
:1018B000801B0228F5D90320FCE18F4A11688023A0
:1018C0005B020B431360B5E78B4B19688022D20291
:1018D0000A431A601968802252020A431A60A9E773
:1018E000FFF71EFF0700844B1B689B03BDD5FFF766
:1018F00017FFC01B6428F6D90320DBE1002EC4D1FA
:101900007D4A1268520702D5002B00D1D6E17A4EEB
:1019100072687C490A40216909020A437260326890
:1019200009218A4313433360FFF700FFF26812096D
:101930000F231340744AD35CD840744B18600020C6
:10194000FFF7BAFE002800D0B4E12368DB062CD5EF
:10195000002D5FD1684B1B689B0503D5A369002B45
:1019600000D1ADE1644A536869490B40216A0B43D9
:10197000536053681B021B0AE16909060B4353605D
:10198000236A590B013180231B028B40D16809095E
:101990000F220A405C498A5CD3405C4A13600020F5
:1019A000FFF78AFE002800D084E123681B077DD55D
:1019B0006369002B67D0504A136D01210B431365F7
:1019C000FFF7AEFE06004C4B1B6D9B076ED4FFF776
:1019D000A7FE801B0228F6D903206BE146494B681D
:1019E000484A13402269120213434B60ADE7424A52
:1019F000136801218B431360FFF792FE06003E4BF4
:101A00001B685B07A1D5FFF78BFE801B0228F6D968
:101A100003204FE1A369002B22D0374A11688023AD
:101A20005B000B431360FFF77BFE0600324B1B6825
:101A30009B0506D4FFF774FE801B0228F6D903200D
:101A400038E12D4A536832490B40216A0B435360F9
:101A500053681B021B0AE16909060B435360A4E7A4
:101A6000254A13682B490B401360FFF759FE060007
:101A7000214B1B689B0598D5FFF752FE801B02285F
:101A8000F6D9032016E11C4A136D01218B4313651F
:101A9000FFF746FE0600184B1B6D9B0706D5FFF7A8
:101AA0003FFE801B0228F6D9032003E123685B0771
:101AB00000D48CE0104B9B6BDB001BD40E4A916B67
:101AC00080235B050B4393630126134B1B68DB05E7
:101AD00026D5A36880225200934235D0002B4BD1EB
:101AE000054B1A6D0B490A401A651A6D0B490A40DD
:101AF0001A652FE00026E8E700100240FFFFFEFF16
:101B0000FFFFFBFFFFE0FFFF9824000830000020EC
:101B1000FF1FFFFFFFFEFFFF00700040FFFBFFFF06
:101B20006B4A116880235B000B431360FFF7F8FDDD
:101B30000700674B1B68DB05CBD4FFF7F1FDC01B2B
:101B40006428F6D90320B5E0624A116D80235B005A
:101B50000B431365A368002B28D0FFF7E1FD0700B6
:101B60005C4B1B6D9B0530D4FFF7DAFDC01B5A4B55
:101B70009842F5D903209DE0A022D200934209D0DB
:101B8000544B1A6D55490A401A651A6D54490A405A
:101B90001A65DFE74F4B196D013AFF3A0A431A65A0
:101BA000196D802252000A431A65D3E7FFF7B8FD8A
:101BB0000700484B1B6D9B0507D5FFF7B1FDC01B08
:101BC000454B9842F5D9032074E0012E1AD0636A80
:101BD000002B00D176E00C2D4FD0022B18D03D4ABF
:101BE000136840490B401360FFF79AFD0400394B1E
:101BF0001B689B013FD5FFF793FD001B0228F6D918
:101C0000032057E0334A936B37490B409363DEE779
:101C1000304A136833490B401360FFF781FD05001C
:101C20002C4B1B689B0106D5FFF77AFD401B022851
:101C3000F6D903203EE02749CB682C4A1340A26A1C
:101C4000E06A0243206B02431343CB600A6880239F
:101C50005B0413430B60FFF763FD04001D4B1B681F
:101C60009B0106D4FFF75CFD001B0228F6D9032078
:101C700020E000201EE000201CE0012B24D0154BAA
:101C8000DA6880235B021340A16A8B4201D00120F5
:101C900010E0F0239B031340E16A8B4201D0012046
:101CA00008E0C0231B041A40236B9A420ED0012087
:101CB00000E0012003B0F0BD0120FBE70120F9E7BF
:101CC0000120F7E70020F5E70120F3E70020F1E726
:101CD000007000400010024088130000FFFEFFFF6C
:101CE000FFFBFFFFFFFFFFFEFFFFFFEFFFFF02FF16
:101CF00070B504000D00002800D1BAE05F4B1A68EF
:101D0000012313408B420BD25C490B6801229343A1
:101D10002B430B600B681A40AA4201D00120A9E0B6
:101D200023689B0706D5564AD368F0218B43A168E8
:101D30000B43D3602368DB0764D56368022B09D0AB
:101D4000032B29D0012B2DD04D4A1268920506D4C1
:101D500001208FE04A4A1268920300D48BE0484980
:101D6000CA68032082431343CB60FFF7D9FC060007
:101D70006368022B1CD0032B28D0012B34D0404B9E
:101D8000DB680C221A423DD0FFF7CAFC801B3D4B9A
:101D90009842F4D903206DE0394A12689201DED4EA
:101DA000012067E0364A12685207D8D4012061E06A
:101DB000334BDA680C231340082B23D0FFF7B0FC19
:101DC000801B304B9842F3D9032053E02C4BDA6848
:101DD0000C2313400C2B15D0FFF7A2FC801B294BC2
:101DE0009842F3D9032045E0254BDA680C231340D1
:101DF000042B07D0FFF794FC801B224B9842F3D9A9
:101E0000032037E01D4B1A6801231340AB420BD966
:101E10001A490B68012293432B430B600B681A404D
:101E2000AA4201D0012025E023685B0706D5144AA9
:101E3000D36815490B40E1680B43D36023681B0747
:101E400007D50F49CB68114A13402269D2001343CA
:101E5000CB60FFF76BFC0A4BDA6812090F231340C3
:101E60000B4AD35CD8400B4B18600020FFF724FCD2
:101E700000E0012070BD0120FCE7C04600200240C8
:101E80000010024088130000FFF8FFFFFFC7FFFFAC
:101E90009824000830000020014B18687047C046A5
:101EA0003000002010B5FFF7F7FF044BDA68120A84
:101EB00007231340024AD35CD84010BD00100240F3
:101EC000A824000810B5FFF7E7FF044BDA68D20A30
:101ED00007231340024AD35CD84010BD00100240D3
:101EE000A824000870B5040003689B064CD55B4B22
:101EF0009B6BDB0000D571E0584A916B80235B053A
:101F00000B4393630125564B1B68DB0568D5534B88
:101F10001968C0239B031940626813408B4206D0A6
:101F2000C0239B0211001940994200D16DE04B4B38
:101F30001B6DC02189020B4015D00A409A4212D075
:101F400023689B060FD5454B186D464A02401E6D0F
:101F50008021090331431965196D434E31401965DC
:101F60001A65C30558D46368C02292021900114053
:101F7000914260D039490B6DC022920260680240E4
:101F800013430B65012D60D023689B0706D5334AA8
:101F9000D36C0C218B43A1680B43D36423685B078C
:101FA00006D52E4AD36C31490B40E1680B43D3640C
:101FB00023681B0706D5294AD36C2D490B4021699C
:101FC0000B43D36423681B0645D5244AD36C2949A7
:101FD0000B4061690B43D364002070BD002592E77C
:101FE0001F4A116880235B000B431360FFF798FBC7
:101FF00006001B4B1B68DB0500D588E7FFF790FB4D
:10200000801B6428F5D90320E7E7144B1B689B036A
:1020100000D48CE70120E0E7FFF782FB06000F4BBE
:102020001B6D9B059FD4FFF77BFB801B124B9842D7
:10203000F5D90320D1E709490A6810480240C020B9
:102040008003034013430B6094E70A008B6B0C4939
:102050000B40936398E70020BFE7C04600100240A2
:1020600000700040FFFFFCFFFFFFF7FFFFF3FFFFE3
:10207000FFCFFFFFFFFFF3FF88130000FFFFCFFF3D
:10208000FFFFFFEFF0B5C64600B5002378E0856896
:102090005F000326BE40B5432E00CD68BD403543EA
:1020A00085604568A5434A681609012434409C4070
:1020B0002C43446007685E0003242500B540ED43CF
:1020C0002F404A681440B4403C430460C468254033
:1020D0008C68B4402C43C4604A68D2004FD5414D4F
:1020E0006C6B012634436C639C08A51CAD003E4E0E
:1020F000AF5903251D40AD000F26AE40B743A026C3
:10210000F605B04267D0394EB04266D0384EB04284
:102110005FD00626AE4035003D430234A400324E67
:10212000A551344C25684246D4432E0026404A68C7
:10213000D20302D5424615432E002E4D2E606D6807
:102140002E0026404A68920302D5424615432E00CF
:10215000284D6E60AD682E0026404A68D20202D536
:10216000424615432E00234DAE60ED682C404A6870
:10217000920202D542462A4314001E4AD46001331B
:102180000A681400DC402AD001249C40224090467A
:10219000F5D04D68022D01D0122D0ED1DD08083585
:1021A000AD002F5807261E40B6000F22B2409743BD
:1021B0000A69B24016003E432E504D686E1E012E35
:1021C00000D864E7112D00D161E7122D00D071E72E
:1021D0005DE702269EE700269CE701269AE704BCFD
:1021E0009046F0BD00100240000001400004005085
:1021F0000008005000040140002A01D181627047AC
:102200008161FCE710B52523C35C022B03D00423B6
:10221000C363012010BD026813680E218B43136055
:1022200001680A6801239A430A601C22416C0A4033
:10223000016C1C0094404C602522835423330022FF
:10224000C254836B002B02D098470020E2E70020A5
:10225000E0E7000070B5002811DB8408134DC0349E
:10226000A400625903231840C000FC331E008640BE
:10227000B24389010B4083401343635170BDC0B228
:102280000F220240083A920806329200084BD318F7
:102290005D6803242040C000FF2214008440A54351
:1022A00089010A4082402A435A60E7E700E100E0E2
:1022B00000ED00E01F2318401E3B8340014A1360DD
:1022C0007047C04600E100E001380A4B98420FD841
:1022D000094A50600948036A1B021B0AC02109060B
:1022E0000B430362002393600733136000207047A1
:1022F0000120FCE7FFFFFF0010E000E000ED00E040
:10230000104B1968802252000A431A60DA680E499D
:102310000A40DA601A680D490A401A609A68012179
:102320008A439A601A680A490A401A60DA680949B9
:102330000A40DA6000221A61074B802212059A6077
:102340007047C046001002400C40FF88F6FFF6FEC2
:10235000FFFFFBFFFFFF02FF00ED00E01348854693
:1023600013480168090E134A914205D112481349D6
:102370000160134813490160002103E0124B5B58D0
:10238000435004311148124B42189A42F6D3114A75
:1023900002E00023136004320F4B9A42F9D3FFF797
:1023A000AFFF00F01DF8FEF76DF9FEE70008002012
:1023B000040000001F000000341002400100000073
:1023C0000000014000000000CC24000800000020B4
:1023D0003400002034000020AC050020FEE700009F
:1023E00070B500260C4D0D4C641BA410A64209D1FB
:1023F000002600F021F80A4D0A4C641BA410A642E6
:1024000005D170BDB300EB5898470136EEE7B30035
:10241000EB5898470136F2E7C4240008C4240008AA
:10242000C4240008C824000803001218934200D1F5
:10243000704719700133F9E7F8B5C046F8BC08BC1D
:102440009E467047F8B5C046F8BC08BC9E4670472B
:1024500086130008B2130008CA13000834140008D9
:10246000021400083414000834140008341400085E
:102470001A140008C2120008FA1200081413000807
:10248000801300084C130008801300088013000814
:102490008013000866130008000000000000000020
:1024A00001020304060708090000000001020304FA
:0C24B000030406080C1018203000000087
:0824BC00A4DDFF7F0100000018
:0424C400E900000823
:0424C800C100000847
:1024CC000800002018000020A403002000000000D9
:1024DC0000000000010200002001002000000000AC
:1024EC000000000001020000020000000004005087
:0424FC0000002000BC
:040000050800235D6F
:00000001FF
